:04000000AFEF5FF00F
:10BF2E00407924301912037800180F6E000E0E6E31
:10BF3E000AD0000ED76E000ED66ED75003E1D6286B
:10BF4E00D8A0FBD70E2A0F500E5CD8B01200F1D736
:10BF5E000E6A0D6A0C6A0B6A2E0EF66EBF0EF76E27
:10BF6E00000EF86E00EE01F010EE0AF00900F5CFAB
:10BF7E00EEFFE550E150FAE10001E3EF5FF0000E55
:10BF8E00806E000E816E000E826E000E836E000EAD
:10BF9E00846E9268000E936E000E946E9568000E7D
:10BFAE00966E000EC26E0F0EC16E000E9B6E740E5C
:10BFBE00D36EC70ED56E1200C6EC5FF080A0FED712
:10BFCE00010E0B6E000E0C6E000E0D6E090E0D6442
:10BFDE0001D0F6D780B2F2D70BC0D9FF0CC0DAFF72
:10BFEE00DF50816E0B4A0C2A3D0E9CEC5FF00D2A41
:02BFFE00EDD77D
:020000040020DA
:08000000FFFFFFFFFFFFFFFF00
:020000040030CA
:0E000000FF081F1EFF8381FF0FC00FE00F409F
:00000001FF
