:0400000096EF5FF028
:10BF2C00016A0001CAEF5FF0026E000E016E0AD0CA
:10BF3C00000ED76E000ED66ED75003E1D628D8A0CF
:10BF4C00FBD7012A0250015CD8B01200F1D7000EC9
:10BF5C00806E000E816E000E826E000E836E000EDF
:10BF6C00846E9268000E936E000E946E9568000EAF
:10BF7C00966E000EC26E0F0EC16E000E9B6E740E8E
:10BF8C00D36EC70ED56E1200ADEC5FF080A0FED75D
:10BF9C0080B2FCD7400E816E3D0E9AEC5FF0790EAC
:10BFAC00816E3D0E9AEC5FF0240E816E3D0E9AEC84
:10BFBC005FF0300E816E3D0E9AEC5FF0190E816EC3
:10BFCC003D0E9AEC5FF0120E816E3D0E9AEC5FF016
:10BFDC00030E816E3D0E9AEC5FF0780E816E3D0E75
:10BFEC009AEC5FF0000E816E3D0E9AEC5FF0180E2D
:04BFFC00816ECED7AD
:020000040020DA
:08000000FFFFFFFFFFFFFFFF00
:020000040030CA
:0E000000FF081F1EFF8381FF0FC00FE00F409F
:00000001FF
