:020000040000FA
:04000000BFEF0BF053
:10100000005468652054696D652F446179206973C7
:10101000005365742054686520436C6F636B005304
:1010200065742054686520446179004D696E75745B
:10103000657300486F7572730000DCEC0BF095EC83
:101040000BF061EC0CF01F0E656E100E666EF9EC85
:101050000BF058EC0CF012EF09F080A032EF08F022
:1010600034EF08F036EF08F048EC0CF080A03BEFCE
:1010700008F03DEF08F03EEF08F0642A80B043EF3F
:1010800008F045EF08F03EEF08F080A24AEF08F0C4
:101090004CEF08F04EEF08F048EC0CF080A253EF54
:1010A00008F055EF08F056EF08F0640680B25BEFE9
:1010B00008F05DEF08F056EF08F06404D8A463EF81
:1010C00008F065EF08F073EF08F04D0E546E72EC07
:1010D0000CF06F0E546E72EC0CF06E0E546E72ECDF
:1010E0000CF058EC0CF0020E6418D8A47AEF08F05B
:1010F0007CEF08F08AEF08F0540E546E72EC0CF09E
:10110000750E546E72EC0CF0650E546E72EC0CF0B1
:1011100058EC0CF0030E6418D8A491EF08F093EF8C
:1011200008F0A1EF08F0570E546E72EC0CF0650E4B
:10113000546E72EC0CF0640E546E72EC0CF058ECC1
:101140000CF0040E6418D8A4A8EF08F0AAEF08F079
:10115000B8EF08F0540E546E72EC0CF0680E546E3A
:1011600072EC0CF0720E546E72EC0CF058EC0CF049
:10117000050E6418D8A4BFEF08F0C1EF08F0CFEF58
:1011800008F0460E546E72EC0CF0720E546E72EC57
:101190000CF0690E546E72EC0CF058EC0CF0060E6C
:1011A0006418D8A4D6EF08F0D8EF08F0E6EF08F0FE
:1011B000530E546E72EC0CF0610E546E72EC0CF027
:1011C000740E546E72EC0CF058EC0CF0070E6418B0
:1011D000D8A4EDEF08F0EFEF08F0FDEF08F0530EA4
:1011E000546E72EC0CF0750E546E72EC0CF06E0EC8
:1011F000546E72EC0CF058EC0CF0080E6418D8A485
:1012000004EF09F006EF09F008EF09F0010E646E33
:101210006450D8A40EEF09F010EF09F012EF09F0B6
:10122000010E646E80A417EF09F019EF09F02DEF9D
:1012300008F048EC0CF080B420EF09F022EF09F040
:101240001BEF09F061EC0CF0110E656E100E666E6E
:10125000F9EC0BF0B5EF09F058EC0CF0330E656EBD
:10126000100E666EF9EC0BF03A0E546E72EC0CF048
:101270005EC054F072EC0CF05FC054F072EC0CF0F5
:10128000010E30EC0CF080A048EF09F04AEF09F0B5
:101290004CEF09F048EC0CF080A051EF09F053EF4F
:1012A00009F054EF09F05F2A80B059EF09F05BEFC5
:1012B00009F054EF09F03A0E5F18D8A462EF09F074
:1012C00064EF09F067EF09F0300E5F6E5E2A320EB0
:1012D0005E18D8A46EEF09F070EF09F07DEF09F009
:1012E000340E5F18D8A477EF09F079EF09F07DEF9D
:1012F00009F0300E5E6E300E5F6E80A282EF09F054
:1013000084EF09F086EF09F048EC0CF080A28BEF37
:1013100009F08DEF09F09CEF09F0300E5F18D8A4AA
:1013200094EF09F096EF09F09BEF09F0390E5F6E2C
:101330005E069CEF09F05F0680B2A1EF09F0A3EF13
:1013400009F09CEF09F080A4A8EF09F0AAEF09F0DA
:10135000ACEF09F048EC0CF080A4B1EF09F0B3EF6A
:1013600009F0B5EF09F0BCEF09F080A4BAEF09F07D
:10137000BCEF09F02CEF09F058EC0CF02B0E656E69
:10138000100E666EF9EC0BF03A0E546E72EC0CF027
:10139000000E556E0E0E5564D0EF09F0D2EF09F035
:1013A000D4EF09F0E5EF09F0000ED76E000ED66E0F
:1013B000D75008E1D628D8A0E0EF09F0E2EF09F015
:1013C000D8EF09F0552ACAEF09F060C054F072EC6A
:1013D0000CF061C054F072EC0CF0020E30EC0CF02A
:1013E00080A0F5EF09F0F7EF09F0F9EF09F048EC0C
:1013F0000CF080A0FEEF09F000EF0AF001EF0AF018
:10140000612A80B006EF0AF008EF0AF001EF0AF057
:101410003A0E6118D8A40FEF0AF011EF0AF014EF9A
:101420000AF0300E616E602A80A219EF0AF01BEFFD
:101430000AF01DEF0AF048EC0CF080A222EF0AF04F
:1014400024EF0AF033EF0AF0300E6118D8A42BEF26
:101450000AF02DEF0AF032EF0AF0390E616E6006E5
:1014600033EF0AF0610680B238EF0AF03AEF0AF083
:1014700033EF0AF080B43FEF0AF041EF0AF043EF98
:101480000AF0E5EF09F061EC0CF0010E656E100E4C
:10149000666EF9EC0BF0A00E546E72EC0CF0640466
:1014A000D8A455EF0AF057EF0AF065EF0AF04D0E99
:1014B000546E72EC0CF06F0E546E72EC0CF06E0EFB
:1014C000546E72EC0CF058EC0CF0020E6418D8A4B8
:1014D0006CEF0AF06EEF0AF07CEF0AF0540E546ED7
:1014E00072EC0CF0750E546E72EC0CF0650E546ECE
:1014F00072EC0CF058EC0CF0030E6418D8A483EFD7
:101500000AF085EF0AF093EF0AF0570E546E72EC72
:101510000CF0650E546E72EC0CF0640E546E72ECAE
:101520000CF058EC0CF0040E6418D8A49AEF0AF0F2
:101530009CEF0AF0AAEF0AF0540E546E72EC0CF015
:10154000680E546E72EC0CF0720E546E72EC0CF06D
:1015500058EC0CF0050E6418D8A4B1EF0AF0B3EF04
:101560000AF0C1EF0AF0460E546E72EC0CF0720EE7
:10157000546E72EC0CF0690E546E72EC0CF058EC78
:101580000CF0060E6418D8A4C8EF0AF0CAEF0AF0EF
:10159000D8EF0AF0530E546E72EC0CF0610E546EDC
:1015A00072EC0CF0740E546E72EC0CF058EC0CF003
:1015B000070E6418D8A4DFEF0AF0E1EF0AF0EFEFAE
:1015C0000AF0530E546E72EC0CF0750E546E72EC01
:1015D0000CF06E0E546E72EC0CF058EC0CF0000E29
:1015E000556E1C0E5564F7EF0AF0F9EF0AF0FBEFA9
:1015F0000AF00CEF0BF0000ED76E000ED66ED7502F
:1016000008E1D628D8A007EF0BF009EF0BF0FFEFA9
:101610000AF0552AF1EF0AF0632A3A0E6318D8A4AB
:1016200014EF0BF016EF0BF06DEF0BF0300E636E56
:10163000622A360E6218D8A420EF0BF022EF0BF0CE
:101640004BEF0BF0300E626E612A3A0E6118D8A48F
:101650002CEF0BF02EEF0BF04BEF0BF0300E616E1A
:10166000602A360E6018D8A438EF0BF03AEF0BF072
:101670004BEF0BF0300E606E5F2A3A0E5F18D8A465
:1016800044EF0BF046EF0BF04BEF0BF0300E5F6EBC
:101690005E2A4BEF0BF0320E5E18D8A452EF0BF01F
:1016A00054EF0BF06DEF0BF0340E5F18D8A45BEF26
:1016B0000BF05DEF0BF06DEF0BF0300E5E6E300E49
:1016C0005F6E642A080E6418D8A469EF0BF06BEF04
:1016D0000BF06DEF0BF0010E646E58EC0CF05EC079
:1016E00054F072EC0CF05FC054F072EC0CF03A0E57
:1016F000546E72EC0CF060C054F072EC0CF061C0EF
:1017000054F072EC0CF03A0E546E72EC0CF062C0B5
:1017100054F072EC0CF063C054F072EC0CF0A00EBC
:10172000546E4DEF0AF000EF00F0000ED76E000E81
:10173000D66ED75008E1D628D8A0A1EF0BF0A3EFC2
:101740000BF099EF0BF0000E556E000E526EB4EFD9
:101750000BF0560E5524D96EDA6A000EDA22DF50ED
:10176000546E72EC0CF0552A070E5564BAEF0BF06C
:10177000BCEF0BF0A9EF0BF0100E526E1200D40E5E
:10178000F66E180EF76E000EF86E00EE56F010EEC4
:101790000FF00900F5CFEEFFE550E150FAE100EE61
:1017A00001F0550EEE6AE806FDE1000EF86E100E2F
:1017B000F76E00011DEF08F0000E806E000E816EC6
:1017C000000E826E000E836E000E846E9268000E14
:1017D000936E000E946E9568000E966E000EC26EAB
:1017E0000F0EC16E000E9B6E740ED36EC70ED56EBB
:1017F000120006EF0CF065C0F6FF66C0F7FF0800A8
:10180000F5CF54F072EC0CF0654A662A65C0F6FF1D
:1018100066C0F7FF0800F5500009D8A412EF0CF0DD
:1018200014EF0CF0FBEF0BF01200533A53500F0B78
:10183000546E54505210546E54C081FF818A819A64
:10184000000ED76E000ED66ED75009E1140ED65C8E
:10185000D8A02DEF0CF02FEF0CF024EF0CF01200BD
:10186000656E000E556E3EEF0CF0000E526E100EBF
:10187000546E72EC0CF0100E526E552A6550555C89
:10188000D8A045EF0CF047EF0CF035EF0CF012004C
:10189000000ED76E000ED66ED75009E1650ED65CED
:1018A000D8A055EF0CF057EF0CF04CEF0CF01200F5
:1018B000000E526EC00E546E72EC0CF0100E526E92
:1018C0001200000E526E010E546E72EC0CF0100EEF
:1018D000526E12003333322C060C0102303030309D
:0318E000303001A4
:0E18E40054C053F015EC0CF015EC0CF0120093
:020000040020DA
:08000000FFFFFFFFFFFFFFFF00
:020000040030CA
:0E000000FF081F1EFF8381FF0FC00FE00F409F
:00000001FF
