:020000040000FA
:040000007AEF5DF046
:10BACA0040792430191203780018000ED76E000E40
:10BADA00D66ED75009E1650ED65CD8A077EF5DF037
:10BAEA0079EF5DF06EEF5DF01200CA0EF66EBA0ED7
:10BAFA00F76E000EF86E00EE01F010EE0AF0090083
:10BB0A00F5CFEEFFE550E150FAE1106A0F6A0E6ACE
:10BB1A000D6A0C6A0B6A0001B2EF5DF0000E806ECE
:10BB2A00000E816E000E826E000E836E000E846E11
:10BB3A00000E926E000E936E000E946E000E956EBD
:10BB4A00030E966E000EC26E0F0EC16E000E9B6E35
:10BB5A00700ED36EC70ED56E120093EC5DF0010E17
:10BB6A000E24D96EDA6A000EDA22DF50806E84A0C3
:10BB7A00C1EF5DF0C3EF5DF0C5EF5DF06AEC5DF01B
:10BB8A0084A0CAEF5DF0CCEF5DF0DCEF5DF00E2A29
:10BB9A0084B0D2EF5DF0D4EF5DF0CDEF5DF0010E31
:10BBAA000E24D96EDA6A000EDA22DF50806E84A281
:10BBBA00E1EF5DF0E3EF5DF0E5EF5DF06AEC5DF07B
:10BBCA0084A2EAEF5DF0ECEF5DF008EF5EF00E5054
:10BBDA00D8B4F2EF5DF0F4EF5DF0F7EF5DF00E062A
:10BBEA00F9EF5DF0000E0E6E84B2FEEF5DF000EF2D
:10BBFA005EF0F9EF5DF0010E0E24D96EDA6A000EDE
:10BC0A00DA22DF50806E84A40DEF5EF00FEF5EF053
:10BC1A0011EF5EF06AEC5DF084A416EF5EF018EFA7
:10BC2A005EF0B4EF5DF084B41DEF5EF01FEF5EF0DE
:10BC3A0018EF5EF0010E0D24D96EDA6A000EDA22D0
:10BC4A00DF50816E84A02CEF5EF02EEF5EF030EFB5
:10BC5A005EF06AEC5DF084A035EF5EF037EF5EF0DF
:10BC6A0053EF5EF0060E0D603DEF5EF03FEF5EF0C3
:10BC7A0042EF5EF00D2A44EF5EF0060E0D6E84B0C0
:10BC8A0049EF5EF04BEF5EF044EF5EF0010E0D24DB
:10BC9A00D96EDA6A000EDA22DF50816E84A258EF7A
:10BCAA005EF05AEF5EF05CEF5EF06AEC5DF084A243
:10BCBA0061EF5EF063EF5EF07FEF5EF00D50D8B497
:10BCCA0069EF5EF06BEF5EF06EEF5EF00D0670EFFF
:10BCDA005EF0000E0D6E84B275EF5EF077EF5EF0E7
:10BCEA0070EF5EF0010E0D24D96EDA6A000EDA22C8
:10BCFA00DF50816E84A484EF5EF086EF5EF088EFF9
:10BD0A005EF06AEC5DF084A48DEF5EF08FEF5EF07A
:10BD1A0018EF5EF084B494EF5EF096EF5EF08FEF6A
:10BD2A005EF0010E0C24D96EDA6A000EDA22DF50B8
:10BD3A00826E84A0A3EF5EF0A5EF5EF0A7EF5EF03F
:10BD4A006AEC5DF084A0ACEF5EF0AEEF5EF0BEEFA1
:10BD5A005EF00C2A84B0B4EF5EF0B6EF5EF0AFEF9F
:10BD6A005EF0010E0C24D96EDA6A000EDA22DF5078
:10BD7A00826E84A2C3EF5EF0C5EF5EF0C7EF5EF09D
:10BD8A006AEC5DF084A2CCEF5EF0CEEF5EF0EAEFF3
:10BD9A005EF00C50D8B4D4EF5EF0D6EF5EF0D9EF77
:10BDAA005EF00C06DBEF5EF0000E0C6E84B2E0EF84
:10BDBA005EF0E2EF5EF0DBEF5EF0010E0C24D96E6E
:10BDCA00DA6A000EDA22DF50826E84A4EFEF5EF0A8
:10BDDA00F1EF5EF0F3EF5EF06AEC5DF084A4F8EF49
:10BDEA005EF0FAEF5EF08FEF5EF084B4FFEF5EF084
:10BDFA0001EF5FF0FAEF5EF0010E0B24D96EDA6AFA
:10BE0A00000EDA22DF50836E84A00EEF5FF010EF8F
:10BE1A005FF012EF5FF06AEC5DF084A017EF5FF05D
:10BE2A0019EF5FF035EF5FF0020E0B601FEF5FF066
:10BE3A0021EF5FF024EF5FF00B2A26EF5FF0020E8E
:10BE4A000B6E84B02BEF5FF02DEF5FF026EF5FF003
:10BE5A00010E0B24D96EDA6A000EDA22DF50836EE5
:10BE6A0084A23AEF5FF03CEF5FF03EEF5FF06AECDE
:10BE7A005DF084A243EF5FF045EF5FF061EF5FF0A2
:10BE8A000B50D8B44BEF5FF04DEF5FF050EF5FF01F
:10BE9A000B0652EF5FF0000E0B6E84B257EF5FF0A5
:10BEAA0059EF5FF052EF5FF0010E0B24D96EDA6A98
:10BEBA00000EDA22DF50836E84A466EF5FF068EF2B
:10BECA005FF06AEF5FF06AEC5DF084A46FEF5FF0F9
:10BEDA0071EF5FF0FAEF5EF0000E0F6E000E106E5B
:10BEEA00000ED76E000ED66ED75008E1D628D8A01D
:10BEFA0081EF5FF083EF5FF079EF5FF0102A1C0E9D
:10BF0A0010648AEF5FF08CEF5FF075EF5FF00F2A35
:10BF1A003B0E0F6493EF5FF095EF5FF073EF5FF006
:10BF2A000E2A0A0E0E18D8A49DEF5FF09FEF5FF05D
:10BF3A00DCEF5FF0000E0E6E0D2A060E0D18D8A467
:10BF4A00A9EF5FF0ABEF5FF0DCEF5FF0000E0D6E74
:10BF5A000C2A020E0B60B4EF5FF0B6EF5FF0C4EF8D
:10BF6A005FF00A0E0C18D8A4BDEF5FF0BFEF5FF0C8
:10BF7A00DCEF5FF0000E0C6E0B2ADCEF5FF0020EB6
:10BF8A000B18D8A4CBEF5FF0CDEF5FF0DCEF5FF0DA
:10BF9A00040E0C18D8A4D4EF5FF0D6EF5FF0DCEFF4
:10BFAA005FF0000E0C6E000E0B6EDCEF5FF0010E00
:10BFBA000E24D96EDA6A000EDA22DF50806E010E84
:10BFCA000D24D96EDA6A000EDA22DF50816E010E74
:10BFDA000C24D96EDA6A000EDA22DF50826E010E64
:10BFEA000B24D96EDA6A000EDA22DF50836E71EF03
:06BFFA005FF000EF00F013
:020000040020DA
:08000000FFFFFFFFFFFFFFFF00
:020000040030CA
:0E000000FF081F1EFF8381FF0FC00FE00F409F
:00000001FF
